{
  "contractName": "Color",
  "abi": [
    {
      "inputs": [],
      "stateMutability": "nonpayable",
      "type": "constructor"
    },
    {
      "anonymous": false,
      "inputs": [
        {
          "indexed": true,
          "internalType": "address",
          "name": "owner",
          "type": "address"
        },
        {
          "indexed": true,
          "internalType": "address",
          "name": "approved",
          "type": "address"
        },
        {
          "indexed": true,
          "internalType": "uint256",
          "name": "tokenId",
          "type": "uint256"
        }
      ],
      "name": "Approval",
      "type": "event"
    },
    {
      "anonymous": false,
      "inputs": [
        {
          "indexed": true,
          "internalType": "address",
          "name": "owner",
          "type": "address"
        },
        {
          "indexed": true,
          "internalType": "address",
          "name": "operator",
          "type": "address"
        },
        {
          "indexed": false,
          "internalType": "bool",
          "name": "approved",
          "type": "bool"
        }
      ],
      "name": "ApprovalForAll",
      "type": "event"
    },
    {
      "anonymous": false,
      "inputs": [
        {
          "indexed": true,
          "internalType": "address",
          "name": "from",
          "type": "address"
        },
        {
          "indexed": true,
          "internalType": "address",
          "name": "to",
          "type": "address"
        },
        {
          "indexed": true,
          "internalType": "uint256",
          "name": "tokenId",
          "type": "uint256"
        }
      ],
      "name": "Transfer",
      "type": "event"
    },
    {
      "inputs": [
        {
          "internalType": "address",
          "name": "to",
          "type": "address"
        },
        {
          "internalType": "uint256",
          "name": "tokenId",
          "type": "uint256"
        }
      ],
      "name": "approve",
      "outputs": [],
      "stateMutability": "nonpayable",
      "type": "function"
    },
    {
      "inputs": [
        {
          "internalType": "address",
          "name": "owner",
          "type": "address"
        }
      ],
      "name": "balanceOf",
      "outputs": [
        {
          "internalType": "uint256",
          "name": "",
          "type": "uint256"
        }
      ],
      "stateMutability": "view",
      "type": "function",
      "constant": true
    },
    {
      "inputs": [
        {
          "internalType": "uint256",
          "name": "",
          "type": "uint256"
        }
      ],
      "name": "colors",
      "outputs": [
        {
          "internalType": "string",
          "name": "",
          "type": "string"
        }
      ],
      "stateMutability": "view",
      "type": "function",
      "constant": true
    },
    {
      "inputs": [
        {
          "internalType": "uint256",
          "name": "tokenId",
          "type": "uint256"
        }
      ],
      "name": "getApproved",
      "outputs": [
        {
          "internalType": "address",
          "name": "",
          "type": "address"
        }
      ],
      "stateMutability": "view",
      "type": "function",
      "constant": true
    },
    {
      "inputs": [
        {
          "internalType": "address",
          "name": "owner",
          "type": "address"
        },
        {
          "internalType": "address",
          "name": "operator",
          "type": "address"
        }
      ],
      "name": "isApprovedForAll",
      "outputs": [
        {
          "internalType": "bool",
          "name": "",
          "type": "bool"
        }
      ],
      "stateMutability": "view",
      "type": "function",
      "constant": true
    },
    {
      "inputs": [],
      "name": "name",
      "outputs": [
        {
          "internalType": "string",
          "name": "",
          "type": "string"
        }
      ],
      "stateMutability": "view",
      "type": "function",
      "constant": true
    },
    {
      "inputs": [
        {
          "internalType": "uint256",
          "name": "tokenId",
          "type": "uint256"
        }
      ],
      "name": "ownerOf",
      "outputs": [
        {
          "internalType": "address",
          "name": "",
          "type": "address"
        }
      ],
      "stateMutability": "view",
      "type": "function",
      "constant": true
    },
    {
      "inputs": [
        {
          "internalType": "address",
          "name": "from",
          "type": "address"
        },
        {
          "internalType": "address",
          "name": "to",
          "type": "address"
        },
        {
          "internalType": "uint256",
          "name": "tokenId",
          "type": "uint256"
        }
      ],
      "name": "safeTransferFrom",
      "outputs": [],
      "stateMutability": "nonpayable",
      "type": "function"
    },
    {
      "inputs": [
        {
          "internalType": "address",
          "name": "from",
          "type": "address"
        },
        {
          "internalType": "address",
          "name": "to",
          "type": "address"
        },
        {
          "internalType": "uint256",
          "name": "tokenId",
          "type": "uint256"
        },
        {
          "internalType": "bytes",
          "name": "_data",
          "type": "bytes"
        }
      ],
      "name": "safeTransferFrom",
      "outputs": [],
      "stateMutability": "nonpayable",
      "type": "function"
    },
    {
      "inputs": [
        {
          "internalType": "address",
          "name": "operator",
          "type": "address"
        },
        {
          "internalType": "bool",
          "name": "approved",
          "type": "bool"
        }
      ],
      "name": "setApprovalForAll",
      "outputs": [],
      "stateMutability": "nonpayable",
      "type": "function"
    },
    {
      "inputs": [
        {
          "internalType": "bytes4",
          "name": "interfaceId",
          "type": "bytes4"
        }
      ],
      "name": "supportsInterface",
      "outputs": [
        {
          "internalType": "bool",
          "name": "",
          "type": "bool"
        }
      ],
      "stateMutability": "view",
      "type": "function",
      "constant": true
    },
    {
      "inputs": [],
      "name": "symbol",
      "outputs": [
        {
          "internalType": "string",
          "name": "",
          "type": "string"
        }
      ],
      "stateMutability": "view",
      "type": "function",
      "constant": true
    },
    {
      "inputs": [
        {
          "internalType": "uint256",
          "name": "tokenId",
          "type": "uint256"
        }
      ],
      "name": "tokenURI",
      "outputs": [
        {
          "internalType": "string",
          "name": "",
          "type": "string"
        }
      ],
      "stateMutability": "view",
      "type": "function",
      "constant": true
    },
    {
      "inputs": [
        {
          "internalType": "address",
          "name": "from",
          "type": "address"
        },
        {
          "internalType": "address",
          "name": "to",
          "type": "address"
        },
        {
          "internalType": "uint256",
          "name": "tokenId",
          "type": "uint256"
        }
      ],
      "name": "transferFrom",
      "outputs": [],
      "stateMutability": "nonpayable",
      "type": "function"
    },
    {
      "inputs": [],
      "name": "totalSupply",
      "outputs": [
        {
          "internalType": "uint256",
          "name": "",
          "type": "uint256"
        }
      ],
      "stateMutability": "view",
      "type": "function",
      "constant": true
    },
    {
      "inputs": [
        {
          "internalType": "string",
          "name": "_color",
          "type": "string"
        }
      ],
      "name": "mint",
      "outputs": [],
      "stateMutability": "nonpayable",
      "type": "function"
    }
  ],
  "bytecode": "0x60806040523480156200001157600080fd5b506040518060400160405280600581526020017f436f6c6f720000000000000000000000000000000000000000000000000000008152506040518060400160405280600581526020017f434f4c4f52000000000000000000000000000000000000000000000000000000815250816000908051906020019062000096929190620000b8565b508060019080519060200190620000af929190620000b8565b505050620001cd565b828054620000c69062000168565b90600052602060002090601f016020900481019282620000ea576000855562000136565b82601f106200010557805160ff191683800117855562000136565b8280016001018555821562000136579182015b828111156200013557825182559160200191906001019062000118565b5b50905062000145919062000149565b5090565b5b80821115620001645760008160009055506001016200014a565b5090565b600060028204905060018216806200018157607f821691505b602082108114156200019857620001976200019e565b5b50919050565b7f4e487b7100000000000000000000000000000000000000000000000000000000600052602260045260246000fd5b6129bb80620001dd6000396000f3fe608060405234801561001057600080fd5b50600436106101005760003560e01c806370a0823111610097578063bd11f69d11610066578063bd11f69d146102ab578063c87b56dd146102db578063d85d3d271461030b578063e985e9c51461032757610100565b806370a082311461022557806395d89b4114610255578063a22cb46514610273578063b88d4fde1461028f57610100565b806318160ddd116100d357806318160ddd1461019f57806323b872dd146101bd57806342842e0e146101d95780636352211e146101f557610100565b806301ffc9a71461010557806306fdde0314610135578063081812fc14610153578063095ea7b314610183575b600080fd5b61011f600480360381019061011a9190611ba3565b610357565b60405161012c9190612333565b60405180910390f35b61013d610439565b60405161014a919061234e565b60405180910390f35b61016d60048036038101906101689190611c36565b6104cb565b60405161017a91906122cc565b60405180910390f35b61019d60048036038101906101989190611b67565b610550565b005b6101a7610668565b6040516101b49190612550565b60405180910390f35b6101d760048036038101906101d29190611a61565b610675565b005b6101f360048036038101906101ee9190611a61565b6106d5565b005b61020f600480360381019061020a9190611c36565b6106f5565b60405161021c91906122cc565b60405180910390f35b61023f600480360381019061023a91906119fc565b6107a7565b60405161024c9190612550565b60405180910390f35b61025d61085f565b60405161026a919061234e565b60405180910390f35b61028d60048036038101906102889190611b2b565b6108f1565b005b6102a960048036038101906102a49190611ab0565b610a72565b005b6102c560048036038101906102c09190611c36565b610ad4565b6040516102d2919061234e565b60405180910390f35b6102f560048036038101906102f09190611c36565b610b80565b604051610302919061234e565b60405180910390f35b61032560048036038101906103209190611bf5565b610c27565b005b610341600480360381019061033c9190611a25565b610d1e565b60405161034e9190612333565b60405180910390f35b60007f80ac58cd000000000000000000000000000000000000000000000000000000007bffffffffffffffffffffffffffffffffffffffffffffffffffffffff1916827bffffffffffffffffffffffffffffffffffffffffffffffffffffffff1916148061042257507f5b5e139f000000000000000000000000000000000000000000000000000000007bffffffffffffffffffffffffffffffffffffffffffffffffffffffff1916827bffffffffffffffffffffffffffffffffffffffffffffffffffffffff1916145b80610432575061043182610db2565b5b9050919050565b606060008054610448906127b0565b80601f0160208091040260200160405190810160405280929190818152602001828054610474906127b0565b80156104c15780601f10610496576101008083540402835291602001916104c1565b820191906000526020600020905b8154815290600101906020018083116104a457829003601f168201915b5050505050905090565b60006104d682610e1c565b610515576040517f08c379a000000000000000000000000000000000000000000000000000000000815260040161050c906124b0565b60405180910390fd5b6004600083815260200190815260200160002060009054906101000a900473ffffffffffffffffffffffffffffffffffffffff169050919050565b600061055b826106f5565b90508073ffffffffffffffffffffffffffffffffffffffff168373ffffffffffffffffffffffffffffffffffffffff1614156105cc576040517f08c379a00000000000000000000000000000000000000000000000000000000081526004016105c390612510565b60405180910390fd5b8073ffffffffffffffffffffffffffffffffffffffff166105eb610e88565b73ffffffffffffffffffffffffffffffffffffffff16148061061a575061061981610614610e88565b610d1e565b5b610659576040517f08c379a000000000000000000000000000000000000000000000000000000000815260040161065090612430565b60405180910390fd5b6106638383610e90565b505050565b6000600680549050905090565b610686610680610e88565b82610f49565b6106c5576040517f08c379a00000000000000000000000000000000000000000000000000000000081526004016106bc90612530565b60405180910390fd5b6106d0838383611027565b505050565b6106f083838360405180602001604052806000815250610a72565b505050565b6000806002600084815260200190815260200160002060009054906101000a900473ffffffffffffffffffffffffffffffffffffffff169050600073ffffffffffffffffffffffffffffffffffffffff168173ffffffffffffffffffffffffffffffffffffffff16141561079e576040517f08c379a000000000000000000000000000000000000000000000000000000000815260040161079590612470565b60405180910390fd5b80915050919050565b60008073ffffffffffffffffffffffffffffffffffffffff168273ffffffffffffffffffffffffffffffffffffffff161415610818576040517f08c379a000000000000000000000000000000000000000000000000000000000815260040161080f90612450565b60405180910390fd5b600360008373ffffffffffffffffffffffffffffffffffffffff1673ffffffffffffffffffffffffffffffffffffffff168152602001908152602001600020549050919050565b60606001805461086e906127b0565b80601f016020809104026020016040519081016040528092919081815260200182805461089a906127b0565b80156108e75780601f106108bc576101008083540402835291602001916108e7565b820191906000526020600020905b8154815290600101906020018083116108ca57829003601f168201915b5050505050905090565b6108f9610e88565b73ffffffffffffffffffffffffffffffffffffffff168273ffffffffffffffffffffffffffffffffffffffff161415610967576040517f08c379a000000000000000000000000000000000000000000000000000000000815260040161095e906123f0565b60405180910390fd5b8060056000610974610e88565b73ffffffffffffffffffffffffffffffffffffffff1673ffffffffffffffffffffffffffffffffffffffff16815260200190815260200160002060008473ffffffffffffffffffffffffffffffffffffffff1673ffffffffffffffffffffffffffffffffffffffff16815260200190815260200160002060006101000a81548160ff0219169083151502179055508173ffffffffffffffffffffffffffffffffffffffff16610a21610e88565b73ffffffffffffffffffffffffffffffffffffffff167f17307eab39ab6107e8899845ad3d59bd9653f200f220920489ca2b5937696c3183604051610a669190612333565b60405180910390a35050565b610a83610a7d610e88565b83610f49565b610ac2576040517f08c379a0000000000000000000000000000000000000000000000000000000008152600401610ab990612530565b60405180910390fd5b610ace84848484611283565b50505050565b60068181548110610ae457600080fd5b906000526020600020016000915090508054610aff906127b0565b80601f0160208091040260200160405190810160405280929190818152602001828054610b2b906127b0565b8015610b785780601f10610b4d57610100808354040283529160200191610b78565b820191906000526020600020905b815481529060010190602001808311610b5b57829003601f168201915b505050505081565b6060610b8b82610e1c565b610bca576040517f08c379a0000000000000000000000000000000000000000000000000000000008152600401610bc1906124f0565b60405180910390fd5b6000610bd46112df565b90506000815111610bf45760405180602001604052806000815250610c1f565b80610bfe846112f6565b604051602001610c0f9291906122a8565b6040516020818303038152906040525b915050919050565b600781604051610c379190612291565b908152602001604051809103902060009054906101000a900460ff1615610c93576040517f08c379a0000000000000000000000000000000000000000000000000000000008152600401610c8a906123b0565b60405180910390fd5b600681908060018154018082558091505060019003906000526020600020016000909190919091509080519060200190610cce929190611820565b5060006006805490509050610ce333826114a3565b6001600783604051610cf59190612291565b908152602001604051809103902060006101000a81548160ff0219169083151502179055505050565b6000600560008473ffffffffffffffffffffffffffffffffffffffff1673ffffffffffffffffffffffffffffffffffffffff16815260200190815260200160002060008373ffffffffffffffffffffffffffffffffffffffff1673ffffffffffffffffffffffffffffffffffffffff16815260200190815260200160002060009054906101000a900460ff16905092915050565b60007f01ffc9a7000000000000000000000000000000000000000000000000000000007bffffffffffffffffffffffffffffffffffffffffffffffffffffffff1916827bffffffffffffffffffffffffffffffffffffffffffffffffffffffff1916149050919050565b60008073ffffffffffffffffffffffffffffffffffffffff166002600084815260200190815260200160002060009054906101000a900473ffffffffffffffffffffffffffffffffffffffff1673ffffffffffffffffffffffffffffffffffffffff1614159050919050565b600033905090565b816004600083815260200190815260200160002060006101000a81548173ffffffffffffffffffffffffffffffffffffffff021916908373ffffffffffffffffffffffffffffffffffffffff160217905550808273ffffffffffffffffffffffffffffffffffffffff16610f03836106f5565b73ffffffffffffffffffffffffffffffffffffffff167f8c5be1e5ebec7d5bd14f71427d1e84f3dd0314c0f7b2291e5b200ac8c7c3b92560405160405180910390a45050565b6000610f5482610e1c565b610f93576040517f08c379a0000000000000000000000000000000000000000000000000000000008152600401610f8a90612410565b60405180910390fd5b6000610f9e836106f5565b90508073ffffffffffffffffffffffffffffffffffffffff168473ffffffffffffffffffffffffffffffffffffffff16148061100d57508373ffffffffffffffffffffffffffffffffffffffff16610ff5846104cb565b73ffffffffffffffffffffffffffffffffffffffff16145b8061101e575061101d8185610d1e565b5b91505092915050565b8273ffffffffffffffffffffffffffffffffffffffff16611047826106f5565b73ffffffffffffffffffffffffffffffffffffffff161461109d576040517f08c379a0000000000000000000000000000000000000000000000000000000008152600401611094906124d0565b60405180910390fd5b600073ffffffffffffffffffffffffffffffffffffffff168273ffffffffffffffffffffffffffffffffffffffff16141561110d576040517f08c379a0000000000000000000000000000000000000000000000000000000008152600401611104906123d0565b60405180910390fd5b611118838383611671565b611123600082610e90565b6001600360008573ffffffffffffffffffffffffffffffffffffffff1673ffffffffffffffffffffffffffffffffffffffff168152602001908152602001600020600082825461117391906126c6565b925050819055506001600360008473ffffffffffffffffffffffffffffffffffffffff1673ffffffffffffffffffffffffffffffffffffffff16815260200190815260200160002060008282546111ca919061263f565b92505081905550816002600083815260200190815260200160002060006101000a81548173ffffffffffffffffffffffffffffffffffffffff021916908373ffffffffffffffffffffffffffffffffffffffff160217905550808273ffffffffffffffffffffffffffffffffffffffff168473ffffffffffffffffffffffffffffffffffffffff167fddf252ad1be2c89b69c2b068fc378daa952ba7f163c4a11628f55a4df523b3ef60405160405180910390a4505050565b61128e848484611027565b61129a84848484611676565b6112d9576040517f08c379a00000000000000000000000000000000000000000000000000000000081526004016112d090612370565b60405180910390fd5b50505050565b606060405180602001604052806000815250905090565b6060600082141561133e576040518060400160405280600181526020017f3000000000000000000000000000000000000000000000000000000000000000815250905061149e565b600082905060005b60008214611370578080611359906127e2565b915050600a826113699190612695565b9150611346565b60008167ffffffffffffffff8111156113b2577f4e487b7100000000000000000000000000000000000000000000000000000000600052604160045260246000fd5b6040519080825280601f01601f1916602001820160405280156113e45781602001600182028036833780820191505090505b5090505b60008514611497576001826113fd91906126c6565b9150600a8561140c919061282b565b6030611418919061263f565b60f81b818381518110611454577f4e487b7100000000000000000000000000000000000000000000000000000000600052603260045260246000fd5b60200101907effffffffffffffffffffffffffffffffffffffffffffffffffffffffffffff1916908160001a905350600a856114909190612695565b94506113e8565b8093505050505b919050565b600073ffffffffffffffffffffffffffffffffffffffff168273ffffffffffffffffffffffffffffffffffffffff161415611513576040517f08c379a000000000000000000000000000000000000000000000000000000000815260040161150a90612490565b60405180910390fd5b61151c81610e1c565b1561155c576040517f08c379a000000000000000000000000000000000000000000000000000000000815260040161155390612390565b60405180910390fd5b61156860008383611671565b6001600360008473ffffffffffffffffffffffffffffffffffffffff1673ffffffffffffffffffffffffffffffffffffffff16815260200190815260200160002060008282546115b8919061263f565b92505081905550816002600083815260200190815260200160002060006101000a81548173ffffffffffffffffffffffffffffffffffffffff021916908373ffffffffffffffffffffffffffffffffffffffff160217905550808273ffffffffffffffffffffffffffffffffffffffff16600073ffffffffffffffffffffffffffffffffffffffff167fddf252ad1be2c89b69c2b068fc378daa952ba7f163c4a11628f55a4df523b3ef60405160405180910390a45050565b505050565b60006116978473ffffffffffffffffffffffffffffffffffffffff1661180d565b15611800578373ffffffffffffffffffffffffffffffffffffffff1663150b7a026116c0610e88565b8786866040518563ffffffff1660e01b81526004016116e294939291906122e7565b602060405180830381600087803b1580156116fc57600080fd5b505af192505050801561172d57506040513d601f19601f8201168201806040525081019061172a9190611bcc565b60015b6117b0573d806000811461175d576040519150601f19603f3d011682016040523d82523d6000602084013e611762565b606091505b506000815114156117a8576040517f08c379a000000000000000000000000000000000000000000000000000000000815260040161179f90612370565b60405180910390fd5b805181602001fd5b63150b7a0260e01b7bffffffffffffffffffffffffffffffffffffffffffffffffffffffff1916817bffffffffffffffffffffffffffffffffffffffffffffffffffffffff191614915050611805565b600190505b949350505050565b600080823b905060008111915050919050565b82805461182c906127b0565b90600052602060002090601f01602090048101928261184e5760008555611895565b82601f1061186757805160ff1916838001178555611895565b82800160010185558215611895579182015b82811115611894578251825591602001919060010190611879565b5b5090506118a291906118a6565b5090565b5b808211156118bf5760008160009055506001016118a7565b5090565b60006118d66118d18461259c565b61256b565b9050828152602081018484840111156118ee57600080fd5b6118f984828561276e565b509392505050565b600061191461190f846125cc565b61256b565b90508281526020810184848401111561192c57600080fd5b61193784828561276e565b509392505050565b60008135905061194e81612929565b92915050565b60008135905061196381612940565b92915050565b60008135905061197881612957565b92915050565b60008151905061198d81612957565b92915050565b600082601f8301126119a457600080fd5b81356119b48482602086016118c3565b91505092915050565b600082601f8301126119ce57600080fd5b81356119de848260208601611901565b91505092915050565b6000813590506119f68161296e565b92915050565b600060208284031215611a0e57600080fd5b6000611a1c8482850161193f565b91505092915050565b60008060408385031215611a3857600080fd5b6000611a468582860161193f565b9250506020611a578582860161193f565b9150509250929050565b600080600060608486031215611a7657600080fd5b6000611a848682870161193f565b9350506020611a958682870161193f565b9250506040611aa6868287016119e7565b9150509250925092565b60008060008060808587031215611ac657600080fd5b6000611ad48782880161193f565b9450506020611ae58782880161193f565b9350506040611af6878288016119e7565b925050606085013567ffffffffffffffff811115611b1357600080fd5b611b1f87828801611993565b91505092959194509250565b60008060408385031215611b3e57600080fd5b6000611b4c8582860161193f565b9250506020611b5d85828601611954565b9150509250929050565b60008060408385031215611b7a57600080fd5b6000611b888582860161193f565b9250506020611b99858286016119e7565b9150509250929050565b600060208284031215611bb557600080fd5b6000611bc384828501611969565b91505092915050565b600060208284031215611bde57600080fd5b6000611bec8482850161197e565b91505092915050565b600060208284031215611c0757600080fd5b600082013567ffffffffffffffff811115611c2157600080fd5b611c2d848285016119bd565b91505092915050565b600060208284031215611c4857600080fd5b6000611c56848285016119e7565b91505092915050565b611c68816126fa565b82525050565b611c778161270c565b82525050565b6000611c88826125fc565b611c928185612612565b9350611ca281856020860161277d565b611cab81612918565b840191505092915050565b6000611cc182612607565b611ccb8185612623565b9350611cdb81856020860161277d565b611ce481612918565b840191505092915050565b6000611cfa82612607565b611d048185612634565b9350611d1481856020860161277d565b80840191505092915050565b6000611d2d603283612623565b91507f4552433732313a207472616e7366657220746f206e6f6e20455243373231526560008301527f63656976657220696d706c656d656e74657200000000000000000000000000006020830152604082019050919050565b6000611d93601c83612623565b91507f4552433732313a20746f6b656e20616c7265616479206d696e746564000000006000830152602082019050919050565b6000611dd3601483612623565b91507f436f6c6f7220416c7265616479204578697369740000000000000000000000006000830152602082019050919050565b6000611e13602483612623565b91507f4552433732313a207472616e7366657220746f20746865207a65726f2061646460008301527f72657373000000000000000000000000000000000000000000000000000000006020830152604082019050919050565b6000611e79601983612623565b91507f4552433732313a20617070726f766520746f2063616c6c6572000000000000006000830152602082019050919050565b6000611eb9602c83612623565b91507f4552433732313a206f70657261746f7220717565727920666f72206e6f6e657860008301527f697374656e7420746f6b656e00000000000000000000000000000000000000006020830152604082019050919050565b6000611f1f603883612623565b91507f4552433732313a20617070726f76652063616c6c6572206973206e6f74206f7760008301527f6e6572206e6f7220617070726f76656420666f7220616c6c00000000000000006020830152604082019050919050565b6000611f85602a83612623565b91507f4552433732313a2062616c616e636520717565727920666f7220746865207a6560008301527f726f2061646472657373000000000000000000000000000000000000000000006020830152604082019050919050565b6000611feb602983612623565b91507f4552433732313a206f776e657220717565727920666f72206e6f6e657869737460008301527f656e7420746f6b656e00000000000000000000000000000000000000000000006020830152604082019050919050565b6000612051602083612623565b91507f4552433732313a206d696e7420746f20746865207a65726f20616464726573736000830152602082019050919050565b6000612091602c83612623565b91507f4552433732313a20617070726f76656420717565727920666f72206e6f6e657860008301527f697374656e7420746f6b656e00000000000000000000000000000000000000006020830152604082019050919050565b60006120f7602983612623565b91507f4552433732313a207472616e73666572206f6620746f6b656e2074686174206960008301527f73206e6f74206f776e00000000000000000000000000000000000000000000006020830152604082019050919050565b600061215d602f83612623565b91507f4552433732314d657461646174613a2055524920717565727920666f72206e6f60008301527f6e6578697374656e7420746f6b656e00000000000000000000000000000000006020830152604082019050919050565b60006121c3602183612623565b91507f4552433732313a20617070726f76616c20746f2063757272656e74206f776e6560008301527f72000000000000000000000000000000000000000000000000000000000000006020830152604082019050919050565b6000612229603183612623565b91507f4552433732313a207472616e736665722063616c6c6572206973206e6f74206f60008301527f776e6572206e6f7220617070726f7665640000000000000000000000000000006020830152604082019050919050565b61228b81612764565b82525050565b600061229d8284611cef565b915081905092915050565b60006122b48285611cef565b91506122c08284611cef565b91508190509392505050565b60006020820190506122e16000830184611c5f565b92915050565b60006080820190506122fc6000830187611c5f565b6123096020830186611c5f565b6123166040830185612282565b81810360608301526123288184611c7d565b905095945050505050565b60006020820190506123486000830184611c6e565b92915050565b600060208201905081810360008301526123688184611cb6565b905092915050565b6000602082019050818103600083015261238981611d20565b9050919050565b600060208201905081810360008301526123a981611d86565b9050919050565b600060208201905081810360008301526123c981611dc6565b9050919050565b600060208201905081810360008301526123e981611e06565b9050919050565b6000602082019050818103600083015261240981611e6c565b9050919050565b6000602082019050818103600083015261242981611eac565b9050919050565b6000602082019050818103600083015261244981611f12565b9050919050565b6000602082019050818103600083015261246981611f78565b9050919050565b6000602082019050818103600083015261248981611fde565b9050919050565b600060208201905081810360008301526124a981612044565b9050919050565b600060208201905081810360008301526124c981612084565b9050919050565b600060208201905081810360008301526124e9816120ea565b9050919050565b6000602082019050818103600083015261250981612150565b9050919050565b60006020820190508181036000830152612529816121b6565b9050919050565b600060208201905081810360008301526125498161221c565b9050919050565b60006020820190506125656000830184612282565b92915050565b6000604051905081810181811067ffffffffffffffff82111715612592576125916128e9565b5b8060405250919050565b600067ffffffffffffffff8211156125b7576125b66128e9565b5b601f19601f8301169050602081019050919050565b600067ffffffffffffffff8211156125e7576125e66128e9565b5b601f19601f8301169050602081019050919050565b600081519050919050565b600081519050919050565b600082825260208201905092915050565b600082825260208201905092915050565b600081905092915050565b600061264a82612764565b915061265583612764565b9250827fffffffffffffffffffffffffffffffffffffffffffffffffffffffffffffffff0382111561268a5761268961285c565b5b828201905092915050565b60006126a082612764565b91506126ab83612764565b9250826126bb576126ba61288b565b5b828204905092915050565b60006126d182612764565b91506126dc83612764565b9250828210156126ef576126ee61285c565b5b828203905092915050565b600061270582612744565b9050919050565b60008115159050919050565b60007fffffffff0000000000000000000000000000000000000000000000000000000082169050919050565b600073ffffffffffffffffffffffffffffffffffffffff82169050919050565b6000819050919050565b82818337600083830152505050565b60005b8381101561279b578082015181840152602081019050612780565b838111156127aa576000848401525b50505050565b600060028204905060018216806127c857607f821691505b602082108114156127dc576127db6128ba565b5b50919050565b60006127ed82612764565b91507fffffffffffffffffffffffffffffffffffffffffffffffffffffffffffffffff8214156128205761281f61285c565b5b600182019050919050565b600061283682612764565b915061284183612764565b9250826128515761285061288b565b5b828206905092915050565b7f4e487b7100000000000000000000000000000000000000000000000000000000600052601160045260246000fd5b7f4e487b7100000000000000000000000000000000000000000000000000000000600052601260045260246000fd5b7f4e487b7100000000000000000000000000000000000000000000000000000000600052602260045260246000fd5b7f4e487b7100000000000000000000000000000000000000000000000000000000600052604160045260246000fd5b6000601f19601f8301169050919050565b612932816126fa565b811461293d57600080fd5b50565b6129498161270c565b811461295457600080fd5b50565b61296081612718565b811461296b57600080fd5b50565b61297781612764565b811461298257600080fd5b5056fea2646970667358221220f3d817f9b49ab694f271640f186c9a3fb6ef760566f2592e1d840cae3381ea1264736f6c63430008000033",
  "immutableReferences": {},
  "source": "// SPDX-License-Identifier: MIT\npragma solidity ^0.8.0;\nimport \"./ERC721.sol\";\n\n/**\n * The Color contract does this and that...\n */\ncontract Color is ERC721 {\n\n\tstring[] public colors;\n\tmapping(string => bool) _colorExists;\n\n  constructor() ERC721(\"Color\",\"COLOR\") public {  \n  }\n  function totalSupply() public view returns (uint) {\n    return colors.length;\n  }\n\n  function mint(string memory _color) public {\n  \t//Generate unique ID\n    require(!_colorExists[_color],'Color Already Exisit');\n  \tcolors.push( _color );\n  \tuint _id = colors.length;\n  \t//Mint \n  \t_mint(msg.sender, _id);\n  \t_colorExists[_color] = true;\n  }\n}\n\n",
  "sourcePath": "/Users/ab/nottobebackedup/Blockchain/etherium/NFT_app/src/contracts/Color.sol",
  "compiler": {
    "name": "solc",
    "version": "0.8.0+commit.c7dfd78e.Emscripten.clang"
  },
  "schemaVersion": "3.4.3",
  "updatedAt": "2021-09-20T03:41:30.058Z",
  "networkType": "ethereum",
  "devdoc": {
    "kind": "dev",
    "methods": {
      "approve(address,uint256)": {
        "details": "See {IERC721-approve}."
      },
      "balanceOf(address)": {
        "details": "See {IERC721-balanceOf}."
      },
      "getApproved(uint256)": {
        "details": "See {IERC721-getApproved}."
      },
      "isApprovedForAll(address,address)": {
        "details": "See {IERC721-isApprovedForAll}."
      },
      "name()": {
        "details": "See {IERC721Metadata-name}."
      },
      "ownerOf(uint256)": {
        "details": "See {IERC721-ownerOf}."
      },
      "safeTransferFrom(address,address,uint256)": {
        "details": "See {IERC721-safeTransferFrom}."
      },
      "safeTransferFrom(address,address,uint256,bytes)": {
        "details": "See {IERC721-safeTransferFrom}."
      },
      "setApprovalForAll(address,bool)": {
        "details": "See {IERC721-setApprovalForAll}."
      },
      "supportsInterface(bytes4)": {
        "details": "See {IERC165-supportsInterface}."
      },
      "symbol()": {
        "details": "See {IERC721Metadata-symbol}."
      },
      "tokenURI(uint256)": {
        "details": "See {IERC721Metadata-tokenURI}."
      },
      "transferFrom(address,address,uint256)": {
        "details": "See {IERC721-transferFrom}."
      }
    },
    "version": 1
  },
  "userdoc": {
    "kind": "user",
    "methods": {},
    "notice": "The Color contract does this and that...",
    "version": 1
  }
}